:020000040000FA
:0400000006EF00F017
:020004000000FA
:080008006FEF00F0956A946AA5
:10001000926A070E936E0F0EC16E070EB46EF28ECB
:10002000F288F19EF19CF086F088D58ED59CD59A09
:10003000D596D584D592D590956A07680568066AE5
:10004000320E046EFF0E076222EF00F0000E066211
:100050002FEF00F0000E046235EF00F083963BECCA
:1000600000F0B6EC00F026EF00F0040638EF00F0E8
:1000700083862FEF00F0FF0E07625FEF00F0015064
:1000800054EC00F0026E005054EC00F0036E010ED0
:10009000806E0250826E66EC00F0020E806E03509D
:1000A000826E66EC00F01200F926C00CF90CA40C6C
:1000B000B00C990C920C820CF80C800C900C006A1D
:1000C000016A806A8390839283941200F90ED76E3E
:1000D000E50ED66EF2A46AEF00F0F2941200F2B2CE
:1000E0008AEF00F0F0B079EF00F0F0B285EF00F0A9
:1000F0001000071EFF0E076280EF00F0F090100066
:1001000083960568066AF0901000051E061E838619
:10011000F0921000086ED8CF09F0FF0E0762B1EF21
:1001200000F00562ACEF00F0120E00629DEF00F0EF
:1001300001629DEF00F0ACEF00F0012A012A0150AE
:10014000140AD8A4ACEF00F0016A002A002A00507B
:10015000140AD8A4ACEF00F0B6EC00F08386320E9F
:10016000046E085009C0D8FFF2921000D890020E19
:10017000005CD8A0CFEF00F0D890040E005CD8A0AF
:10018000D3EF00F0D890060E005CD8A0D7EF00F0B7
:10019000D890080E005CD8A0DBEF00F0120083902E
:1001A00083928394120083808392839412008390BD
:0E01B0008382839412008390839283841200D2
:020000040030CA
:0100010002FC
:0100050003F7
:010006008178
:00000001FF
